:100000000A128A11F42FFF1B0D2883137F18831700
:100010000008840A0319FF0A080000308A00040857
:10002000840A8207003454347834203463346F34C3
:100030006D3470346C346534743465346434203415
:1000400061346C346C342034623479347434653403
:1000500073340D340A3400340D340A34743461348A
:100060006B3469346E346734203469346E34203430
:1000700074346834653420347434653478347434BA
:1000800020340D340A3400345434783420346F343E
:100090006634203431342034623479347434653435
:1000A000203463346F346D3470346C34653474349C
:1000B00065340D340A34003459346F3475342034C7
:1000C0006834613476346534203465346E34743485
:1000D00065347234653464343A340D340A3400348F
:1000E0005534413452345434203449346E346934F4
:1000F0007434693461346C34693473346534643411
:100100000D340A340034533465346E346434693445
:100110006E346734203454344F3420344C346534D6
:1001200064340D340A3400340D340A3441346334F9
:100130006B346E346F3477346C34653464346734C4
:10014000653464340D340A3400344B346534793406
:1001500065346434203469346E3420340D340A3408
:02016000003469
:1009C600831203138C1EE32C1A08080064008001AE
:1009D600840A0406031900340406EA2CF000831284
:1009E60003130C1EF22C83160313981CF62C7008A6
:1009F60083120313990008008230F0000030F100E2
:100A060070087104031908000130F0020030031C5D
:100A1600F103F102032D72087304031908000A1288
:100A26008A11FF240A128A110130F2020030031CD7
:100A3600F303F3020E2D9330F8007808F900FB015A
:100A46000A128A11E3240A128A11F8007808FA00B9
:100A56000D307A0603193C2D7A08F8007B08413ED2
:100A660084007808831380000130F8007808FB07BB
:100A7600232D7B08413E8400831380017908F10011
:100A86000030031D8030F2000A128A114C254130D5
:100A96000800F601F70176087107F4007208F30002
:100AA6000318F30AF61BF3037308F500750883129F
:100AB6000313FF00740884000A128A1103200A1225
:100AC6008A11003A0319080076087107F4007208C3
:100AD600F3000318F30AF61BF3037308F500750811
:100AE60083120313FF00740884000A128A1103207C
:100AF6000A128A110A128A11F1240A128A11013085
:100B0600F6070318F70A0030F7074E2D8312031372
:100B1600A101F31F9B2DF009F109F209F309F00A6F
:100B26000319F10A0319F20A0319F30AA101A10A2A
:100B3600F71FAC2DF409F509F609F709F40A0319AC
:100B4600F50A0319F60A0319F70A0130F8007808BE
:100B5600A1060030A5000030A4000030A30000303C
:100B6600A20073087204710470040319012EA00117
:100B7600A00AF31BCC2D0130F8000310F00DF10D87
:100B8600F20DF30DF80BC02D0130F8007808A00720
:100B9600BC2D0130F8000310A20DA30DA40DA50D68
:100BA600F80BCE2D73087702031DE32D720876022B
:100BB600031DE32D71087502031DE32D70087402F1
:100BC600031CF42D7008F4027108031C710FF50262
:100BD6007208031C720FF6027308031C730FF702E8
:100BE600221401300310F30CF20CF10CF00CFF3E52
:100BF600031DF52D0130A002031DCC2D210803197C
:100C06000F2EA209A309A409A509A20A0319A30A7A
:100C16000319A40A0319A50A2508F3002408F200FB
:100C26002308F1002208F0000800831203132608A7
:100C3600AA002708AB002808AC002908AD0006303A
:100C46000310AA0DAB0DAC0DAD0DFF3E031D232EFB
:100C56002D08F3002C08F2002B08F1002A08F000FA
:100C66000030AE001230AF007A30B0000030B10074
:100C76002608B2002708B3002808B4002908B500E2
:100C860006300310B20DB30DB40DB50DFF3E031DB6
:100C9600442EB209B309B409B509B20A0319B30A55
:100CA6000319B40A0319B50A3208AE073308031844
:100CB600330F5E2E5F2EAF0734080318340F642EF1
:100CC600652EB00735080318350AB1073108F70055
:100CD6003008F6002F08F5002E08F4000A128A11D3
:100CE60089250A128A117108FA007008F900013084
:100CF6007A02003003197902031CF02E83120313C3
:100D06002608AA002708AB002808AC002908AD0071
:100D160004300310AA0DAB0DAC0DAD0DFF3E031D47
:100D26008C2E2D08F3002C08F2002B08F1002A085F
:100D3600F0000030AE001230AF007A30B000003064
:100D4600B1002608B2002708B3002808B400290815
:100D5600B50004300310B20DB30DB40DB50DFF3E52
:100D6600031DAD2EB209B309B409B509B20A0319B8
:100D7600B30A0319B40A0319B50A3208AE073308D1
:100D86000318330FC72EC82EAF0734080318340FC5
:100D9600CD2ECE2EB00735080318350AB107310817
:100DA600F7003008F6002F08F5002E08F4000A12A6
:100DB6008A1189250A128A117108FA007008F90049
:100DC6008316031318157908990018128312031352
:100DD6009817181683160313981601307A020030F6
:100DE60003197902031808008316031318117908EA
:100DF60099001812831203139817181683160313F3
:100E0600981608001A30FC007C0883120313B600FB
:100E16008230FC007C08B7004A30FC007C08B80031
:100E26005E30FC007C08B9007130FC007C08BA001A
:100E36003230FC007C08BB000130FC007C08BC00A2
:100E460083160313860170308F040F1D282F8B0124
:100E5600003083120313A9000030A8002530A70034
:100E66008030A6000A128A1118260A128A118312E5
:100E760003133908F1000030031D8030F2000A1216
:100E86008A114C250A128A11F430F2000130F3005F
:100E96000A128A110E250A128A11831203133608C2
:100EA600F1000030031D8030F2000A128A114C2531
:100EB6000A128A110A128A111E250A128A11FC00C8
:100EC6007C0883120313C0003708F1000030031DAD
:100ED6008030F2000A128A114C250A128A118312F6
:100EE60003133808F1000030031D8030F2000A12A7
:100EF6008A114C250A128A11831203134008F10045
:100F06000030F2000A128A114C250A128A11831245
:100F160003133A08F1000030031D8030F2000A1274
:100F26008A114C250A128A11831203134008840081
:100F3600831300080319E82F83120313BE01BF01B0
:100F460000303F02083003193E020318E22F400822
:100F560084008313001CB12F0130B22F0030FC0037
:100F66007C08BD003D1CBB2F831203130614BE2F45
:100F76008312031306107D30F2000030F3000A12CC
:100F86008A110E250A128A1183120313400884005F
:100F960083130008FC0003107C0CFD00400884004D
:100FA6007D0880000130BE070318BF0A0030BF0766
:100FB60000303F02083003193E02031CAA2F0130FD
:100FC600FC007C08C0073B088D2F3C08F100003070
:100FD600031D8030F2000A128A114C250A128A116A
:100FE600502FD50183134030840055300A128A11E0
:0A0FF600E92483010A128A11052F75
:04400E00F4E3FFFFD9
:00000001FF
