:100000000A128A11F42FFF1B0D2883137F18831700
:100010000008840A0319FF0A08007F087F398A0054
:0A0020000408840A0319FF0A820095
:1009F600831203138C1EFB2C1A0808006400800166
:100A0600840A0406031900340406022DF00083123A
:100A160003130C1E0A2D83160313981C0E2D700843
:100A260083120313990008008230F0000030F100B1
:100A360070087104031908000130F0020030031C2D
:100A4600F103F1021B2D72087304031908000A1240
:100A56008A1117250A128A110130F2020030031C8E
:100A6600F303F302262D8316031387150716831245
:100A760003138C1183160313910114081D30930080
:100A86002830F00070088312031394040800AF3076
:100A9600F9008930FA00FC010A128A11FB240A12B5
:100AA6008A11F8007808FB000D307B060319682DC3
:100AB6007B08F8007C08553E840078088313800084
:100AC6000130F8007808FC074F2D7C08553E84005D
:100AD600831380017908F1007A08F2000A128A115C
:100AE600762555300800F601F70176087107F400FF
:100AF6007208F3000318F30AF61BF3037308F500F4
:100B0600750883120313FF00740884000A128A1101
:100B160003200A128A11003A0319080076087107A1
:100B2600F4007208F3000318F30AF61BF3037308C4
:100B3600F500750883120313FF00740884000A1277
:100B46008A1103200A128A110A128A1109250A1229
:100B56008A110130F6070318F70A0030F707782DD7
:100B660083120313A101F31FC52DF009F109F20940
:100B7600F309F00A0319F10A0319F20A0319F30A31
:100B8600A101A10AF71FD62DF409F509F609F709FF
:100B9600F40A0319F50A0319F60A0319F70A0130CC
:100BA600F8007808A1060030A5000030A400003047
:100BB600A3000030A20073087204710470040319C4
:100BC6002B2EA001A00AF31BF62D0130F80003100E
:100BD600F00DF10DF20DF30DF80BEA2D0130F800D2
:100BE6007808A007E62D0130F8000310A20DA30D2A
:100BF600A40DA50DF80BF82D73087702031D0D2E15
:100C060072087602031D0D2E71087502031D0D2E46
:100C160070087402031C1E2E7008F4027108031C6F
:100C2600710FF5027208031C720FF6027308031C9B
:100C3600730FF702221401300310F30CF20CF10CBF
:100C4600F00CFF3E031D1F2E0130A002031DF62DE2
:100C560021080319392EA209A309A409A509A20A84
:100C66000319A30A0319A40A0319A50A2508F30000
:100C76002408F2002308F1002208F00008002230C0
:100C860083120313C2008930C3000030C4008830C9
:100C9600C5005230C6008930C7008D30C800893083
:100CA600C9007A30CA008930CB009530B60088304A
:100CB600B700B930B8008830B900DD30BA008830E6
:100CC600BB00A030BC008930BD00BB30BE008930FF
:100CD600BF006130C0008830C1003A30CC00893096
:100CE600CD000130CE008930CF007030831603135B
:100CF6008F040F1D7C2E8B01003083120313A90075
:100D06000030A8002530A7008030A6000A128A11FC
:100D160007270A128A11831203134808F1004908AB
:100D2600F2000A128A1176250A128A11F430F200AC
:100D36000130F3000A128A1126250A128A110A12B4
:100D46008A1136250A128A11831203134A08F10002
:100D56004B08F2000A128A1176250A128A118312AA
:100D660003134208F1004308F2000A128A1176259D
:100D76000A128A110A128A114A250A128A11FD00DC
:100D86007D0883120313D4004608F1004708F200D9
:100D96000A128A1176250A128A118312031354083D
:100DA600F1000030F2000A128A1176250A128A1121
:100DB600831203134408F1004508F2000A128A114F
:100DC60076250A128A110A128A11FB240A128A113E
:100DD600FD007D0883120313D0004E08F1004F0872
:100DE600F2000A128A1176250A128A118312031357
:100DF60050080A128A1109250A128A11831203134E
:100E06004C08F1004D08AC2E831203132608AA00E5
:100E16002708AB002808AC002908AD0006300310EF
:100E2600AA0DAB0DAC0DAD0DFF3E031D122F2D0807
:100E3600F3002C08F2002B08F1002A08F00000301D
:100E4600AE001230AF007A30B0000030B100260894
:100E5600B2002708B3002808B4002908B5000630F8
:100E66000310B20DB30DB40DB50DFF3E031D332FA8
:100E7600B209B309B409B509B20A0319B30A0319C9
:100E8600B40A0319B50A3208AE0733080318330F3C
:100E96004D2F4E2FAF0734080318340F532F542FFE
:100EA600B00735080318350AB1073108F7003008CE
:100EB600F6002F08F5002E08F4000A128A11B32551
:100EC6000A128A117108FA007008F90001307A02D4
:100ED600003003197902031CDF2F8312031326083F
:100EE600AA002708AB002808AC002908AD0004308A
:100EF6000310AA0DAB0DAC0DAD0DFF3E031D7B2FF0
:100F06002D08F3002C08F2002B08F1002A08F00047
:100F16000030AE001230AF007A30B0000030B100C1
:100F26002608B2002708B3002808B4002908B5002F
:100F360004300310B20DB30DB40DB50DFF3E031D05
:100F46009C2FB209B309B409B509B20A0319B30A49
:100F56000319B40A0319B50A3208AE073308031891
:100F6600330FB62FB72FAF0734080318340FBC2F33
:100F7600BD2FB00735080318350AB1073108F70049
:100F86003008F6002F08F5002E08F4000A128A1120
:100F9600B3250A128A117108FA007008F90083163F
:100FA600031318157908990018128312031398175A
:100FB600181683160313981601307A0200300319A7
:100FC600790203180800831603131811790899008B
:100FD60018128312031398171816831603139816FC
:100FE6000800E90183135130840069300A128A111E
:100FF600012583010A128A11422E0D340A34453422
:101006006E34743465347234203479346F34753404
:1010160072342034633468346F346934633465342D
:1010260020340D340A34203431342E3453346C34A5
:1010360061347634653420343134283441346434B0
:10104600643472346534733473343A3430347834F7
:10105600413441340D340A3432342E3453346C3432
:10106600613476346534203432342834413464347F
:10107600643472346534733473343A3430347834C7
:101086004234423429340D340A3433342E34533442
:101096006C34613476346534203433342834413446
:1010A6006434643472346534733473343A343034AB
:1010B6007834433443340D340A3400344E346F34B8
:1010C60020346D3465347334733461346734653475
:1010D6002034773469346C346C34203462346534AB
:1010E6002034733465346E34743420347334693484
:1010F6006E346334653420346E346F342034733484
:101106006C3461347634653420346E346F34203474
:1011160065346E34743465347234653464340D3435
:101126000A340034533465346E34643469346E34AE
:101136006734203474346F34203453346C3461345F
:1011460076346534203431342034283441346434E0
:101156006434723465347334733420343034783400
:101166004134413429340D340A340034533465345F
:101176006E34643469346E346734203474346F34B6
:10118600203453346C34613476346534203432344C
:10119600203428344134643464347234653473340E
:1011A60073342034303478344234423429340D34A4
:1011B6000A340034533465346E34643469346E341E
:1011C6006734203474346F34203453346C346134CF
:1011D600763465342034333420342834413464344E
:1011E6006434723465347334733420343034783470
:1011F6004334433429340D340A34003459346F34BB
:10120600753420346834613476346534203465347A
:101216006E34743465347234653464342034633423
:1012260068346F3469346334653420346E3475340D
:101236006D346234653472340D340A3400340D343E
:101246000A34743461346B3469346E346734203450
:1012560069346E342034743468346534203474341C
:1012660065347834743420340D340A34003443340D
:101276006C346F34733469346E34673420344334D9
:101286006F346D346D3475346E346934633461345F
:10129600743469346F346E340D340A34003459347E
:1012A6006F347534203468346134763465342034D0
:1012B60065346E34743465347234653464343A3467
:1012C6000D340A34003469346E347434653472343F
:1012D6007234753470347434203472346F34753427
:1012E600743469346E3465340D340A340034493448
:1012F60032344334203469346E3469347434693496
:1013060061346C3469347334653464343A340D347E
:101316000A34003455344134523454342034493478
:101326006E3469347434693461346C3469347334BA
:10133600653464340D340A340034613464346434FE
:1013460072346534733473342034733465346E34D4
:1013560074340D340A3400344B34653479346534CE
:101366006434203469346E3420340D340A34003445
:1013760064346134743461342034733465346E34C7
:0813860074340D340A34003404
:04400E00F4E3FFFFD9
:00000001FF
