:100000000A128A11F42F00308A000408840A820739
:10001000003454347834203463346F346D347034A5
:100020006C346534743465346434203461346C3435
:100030006C342034623479347434653473340D3460
:100040000A3400340D340A34743461346B34693446
:100050006E346734203469346E3420347434683438
:1000600065342034743465347834743420340D3479
:100070000A3400345434783420346F3466342034F5
:100080003134203462347934743465342034633448
:100090006F346D3470346C346534743465340D34BD
:1000A0000A34003459346F34753420346834613480
:1000B00076346534203465346E3474346534723487
:1000C000653464343A340D340A34003455344134E0
:1000D00052345434203449346E34693474346934BD
:1000E00061346C3469347334653464340D340A34E7
:1000F000003452345834203430342E342E342E34DC
:100100002E342E342E342E342E342E342E340D3400
:100110000A340034533465346E34643469346E34D4
:100120006734203454344F3420344C3465346434D0
:100130000D340A3400340D340A34413463346B34E2
:100140006E346F3477346C346534643467346534BA
:1001500064340D340A3400344B34653479346534F6
:100160006434203469346E3420340D340A3400345D
:0E01700052345834203431340D340A34003403
:1009C800831203138C1EE42C1A08080064008001AB
:1009D800840A0406031900340406EB2CF000831281
:1009E80003130C1EF32C83160313981CF72C7008A2
:1009F80083120313990008008230F0000030F100E0
:100A080070087104031908000130F0020030031C5B
:100A1800F103F102042D72087304031908000A1285
:100A28008A1100250A128A110130F2020030031CD3
:100A3800F303F3020F2DF300F101F20171087307BC
:100A480084000A128A1103200A128A11003A031933
:100A580008007108730784000A128A1103200A1219
:100A68008A110A128A11F2240A128A110130F10736
:100A78000318F20A0030F207222DA430F40074089B
:100A8800F500F7010A128A11E4240A128A11F40007
:100A98007408F6000D30760603195F2D7608F40009
:100AA8007708463E84007408831380000130F40000
:100AB8007408F707462D7708463E840083138001A3
:100AC80075080A128A111F2546300800831203137D
:100AD800A101F31F7C2DF009F109F209F309F00ACD
:100AE8000319F10A0319F20A0319F30AA101A10A69
:100AF800F71F8D2DF409F509F609F709F40A03190A
:100B0800F50A0319F60A0319F70A0130F8007808FC
:100B1800A1060030A5000030A4000030A30000307A
:100B2800A20073087204710470040319E22DA00175
:100B3800A00AF31BAD2D0130F8000310F00DF10DE4
:100B4800F20DF30DF80BA12D0130F8007808A0077D
:100B58009D2D0130F8000310A20DA30DA40DA50DC5
:100B6800F80BAF2D73087702031DC42D72087602A7
:100B7800031DC42D71087502031DC42D700874026D
:100B8800031CD52D7008F4027108031C710FF502BF
:100B98007208031C720FF6027308031C730FF70226
:100BA800221401300310F30CF20CF10CF00CFF3E90
:100BB800031DD62D0130A002031DAD2D21080319F8
:100BC800F02DA209A309A409A509A20A0319A30AD9
:100BD8000319A40A0319A50A2508F3002408F2003A
:100BE8002308F1002208F0000800831203132608E6
:100BF800AA002708AB002808AC002908AD00063079
:100C08000310AA0DAB0DAC0DAD0DFF3E031D042E58
:100C18002D08F3002C08F2002B08F1002A08F00038
:100C28000030AE001230AF007A30B0000030B100B2
:100C38002608B2002708B3002808B4002908B50020
:100C480006300310B20DB30DB40DB50DFF3E031DF4
:100C5800252EB209B309B409B509B20A0319B30AB2
:100C68000319B40A0319B50A3208AE073308031882
:100C7800330F3F2E402EAF0734080318340F452E8C
:100C8800462EB00735080318350AB1073108F700B2
:100C98003008F6002F08F5002E08F4000A128A1111
:100CA8006A250A128A117108FA007008F9000130E1
:100CB8007A02003003197902031CD12E8312031320
:100CC8002608AA002708AB002808AC002908AD00B0
:100CD80004300310AA0DAB0DAC0DAD0DFF3E031D86
:100CE8006D2E2D08F3002C08F2002B08F1002A08BD
:100CF800F0000030AE001230AF007A30B0000030A3
:100D0800B1002608B2002708B3002808B400290853
:100D1800B50004300310B20DB30DB40DB50DFF3E90
:100D2800031D8E2EB209B309B409B509B20A031915
:100D3800B30A0319B40A0319B50A3208AE0733080F
:100D48000318330FA82EA92EAF0734080318340F41
:100D5800AE2EAF2EB00735080318350AB107310893
:100D6800F7003008F6002F08F5002E08F4000A12E4
:100D78008A116A250A128A117108FA007008F900A6
:100D88008316031318157908990018128312031390
:100D98009817181683160313981601307A02003034
:100DA8000319790203180800831603131811790828
:100DB8009900181283120313981718168316031331
:100DC800981608001A30FB007B0883120313B6003C
:100DD8009330FB007B08B7004A30FB007B08B80063
:100DE8005E30FB007B08B9008230FB007B08BA004C
:100DF8003230FB007B08BB000130FB007B08BC00E5
:100E0800B030FB007B08BD007130FB007B08BE00E2
:100E18008316031386010830870070308F040F1D76
:100E2800132F8B01003083120313A9000030A80090
:100E38002530A7008030A6000A128A11F9250A1267
:100E48008A118312031339080A128A111F250A12FC
:100E58008A11F430F2000130F3000A128A110F25CA
:100E68000A128A118312031336080A128A111F25DF
:100E78000A128A110A128A1141250A128A11FB00E4
:100E88007B0883120313C50037080A128A111F252D
:100E98000A128A118312031338080A128A111F25AD
:100EA8000A128A11831203133A080A128A111F259B
:100EB8000A128A1183120313450884008313000859
:100EC8000319ED2F83120313C001C101C201C3012D
:100ED800003043020830031942020318DA2F45088C
:100EE80084008313001C7A2F01307B2F0030FB0015
:100EF8007B08BF003F1C842F831203130614872F1F
:100F0800831203130610003087190130C40044030C
:100F1800031D902F3D08932F831203133E080A12D6
:100F28008A111F250A128A1183120313420AFB0031
:100F380044084007FC0041080318410AFD00A72F98
:100F48000310FC0DFD0DFB0BA42F7C08C0007D08D1
:100F5800C1004408FB00FC017B08C0070318C10A54
:100F68007C08C107E830F2000330F3000A128A1146
:100F78000F250A128A11831203134508840083136C
:100F88000008FB0003107B0CFC00450884007C086B
:100F980080000130C2070318C30A0030C3070030BD
:100FA8004302083003194202031C732F0130FB006F
:100FB8007B08C5073B080A128A111F250A128A11E5
:100FC8008312031340080A128A11F2240A128A11A2
:100FD8005E2F3C080A128A111F250A128A11362F21
:100FE800DA018313453084005A300A128A11EA2440
:080FF80083010A128A11E62EA2
:04400E00F4E3FFFFD9
:00000001FF
