:100000000A128A11F42F00308A000408840A820739
:10001000003454347834203463346F346D347034A5
:100020006C346534743465346434203461346C3435
:100030006C342034623479347434653473340D3460
:100040000A3400340D340A34743461346B34693446
:100050006E346734203469346E3420347434683438
:1000600065342034743465347834743420340D3479
:100070000A3400345434783420346F3466342034F5
:100080003134203462347934743465342034633448
:100090006F346D3470346C346534743465340D34BD
:1000A0000A34003459346F34753420346834613480
:1000B00076346534203465346E3474346534723487
:1000C000653464343A340D340A34003455344134E0
:1000D00052345434203449346E34693474346934BD
:1000E00061346C3469347334653464340D340A34E7
:1000F000003452345834203430342E342E342E34DC
:100100002E342E342E342E342E342E342E340D3400
:100110000A340034533465346E34643469346E34D4
:100120006734203454344F3420344C3465346434D0
:100130000D340A3400340D340A34413463346B34E2
:100140006E346F3477346C346534643467346534BA
:1001500064340D340A3400344B34653479346534F6
:100160006434203469346E3420340D340A3400345D
:0E01700052345834203431340D340A34003403
:1009E400831203138C1EF22C1A0808006400800181
:1009F400840A0406031900340406F92CF000831257
:100A040003130C1E012D83160313981C052D700867
:100A140083120313990008008230F0000030F100C3
:100A240070087104031908000130F0020030031C3F
:100A3400F103F102122D72087304031908000A125B
:100A44008A110E250A128A110130F2020030031CA9
:100A5400F303F3021D2DF300F101F2017108730792
:100A640084000A128A1103200A128A11003A031917
:100A740008007108730784000A128A1103200A12FD
:100A84008A110A128A1100250A128A110130F1070B
:100A94000318F20A0030F207302DA430F400740871
:100AA400F500F7010A128A11F2240A128A11F400DD
:100AB4007408F6000D30760603196D2D7608F400DF
:100AC4007708463E84007408831380000130F400E4
:100AD4007408F707542D7708463E84008313800179
:100AE40075080A128A112D25463008008312031353
:100AF400A101F31F8A2DF009F109F209F309F00AA3
:100B04000319F10A0319F20A0319F30AA101A10A4C
:100B1400F71F9B2DF409F509F609F709F40A0319DF
:100B2400F50A0319F60A0319F70A0130F8007808E0
:100B3400A1060030A5000030A4000030A30000305E
:100B4400A20073087204710470040319F02DA0014B
:100B5400A00AF31BBB2D0130F8000310F00DF10DBA
:100B6400F20DF30DF80BAF2D0130F8007808A00753
:100B7400AB2D0130F8000310A20DA30DA40DA50D9B
:100B8400F80BBD2D73087702031DD22D720876026F
:100B9400031DD22D71087502031DD22D7008740235
:100BA400031CE32D7008F4027108031C710FF50295
:100BB4007208031C720FF6027308031C730FF7020A
:100BC400221401300310F30CF20CF10CF00CFF3E74
:100BD400031DE42D0130A002031DBB2D21080319C0
:100BE400FE2DA209A309A409A509A20A0319A30AAF
:100BF4000319A40A0319A50A2508F3002408F2001E
:100C04002308F1002208F0000800831203132608C9
:100C1400AA002708AB002808AC002908AD0006305C
:100C24000310AA0DAB0DAC0DAD0DFF3E031D122E2E
:100C34002D08F3002C08F2002B08F1002A08F0001C
:100C44000030AE001230AF007A30B0000030B10096
:100C54002608B2002708B3002808B4002908B50004
:100C640006300310B20DB30DB40DB50DFF3E031DD8
:100C7400332EB209B309B409B509B20A0319B30A88
:100C84000319B40A0319B50A3208AE073308031866
:100C9400330F4D2E4E2EAF0734080318340F532E46
:100CA400542EB00735080318350AB1073108F70088
:100CB4003008F6002F08F5002E08F4000A128A11F5
:100CC40078250A128A117108FA007008F9000130B7
:100CD4007A02003003197902031CDF2E83120313F6
:100CE4002608AA002708AB002808AC002908AD0094
:100CF40004300310AA0DAB0DAC0DAD0DFF3E031D6A
:100D04007B2E2D08F3002C08F2002B08F1002A0892
:100D1400F0000030AE001230AF007A30B000003086
:100D2400B1002608B2002708B3002808B400290837
:100D3400B50004300310B20DB30DB40DB50DFF3E74
:100D4400031D9C2EB209B309B409B509B20A0319EB
:100D5400B30A0319B40A0319B50A3208AE073308F3
:100D64000318330FB62EB72EAF0734080318340F09
:100D7400BC2EBD2EB00735080318350AB10731085B
:100D8400F7003008F6002F08F5002E08F4000A12C8
:100D94008A1178250A128A117108FA007008F9007C
:100DA4008316031318157908990018128312031374
:100DB4009817181683160313981601307A02003018
:100DC400031979020318080083160313181179080C
:100DD4009900181283120313981718168316031315
:100DE400981608001A30FB007B0883120313B60020
:100DF4009330FB007B08B7004A30FB007B08B80047
:100E04005E30FB007B08B9008230FB007B08BA002F
:100E14003230FB007B08BB000130FB007B08BC00C8
:100E2400B030FB007B08BD007130FB007B08BE00C6
:100E34008316031386010830870070308F040F1D5A
:100E4400212F8B01003083120313A9000030A80066
:100E54002530A7008030A6000A128A1107260A123C
:100E64008A118312031339080A128A112D250A12D2
:100E74008A11F430F2000130F3000A128A111D25A0
:100E84000A128A118312031336080A128A112D25B5
:100E94000A128A110A128A114F250A128A11FB00BA
:100EA4007B0883120313C50037080A128A112D2503
:100EB4000A128A118312031338080A128A112D2583
:100EC4000A128A11831203133A080A128A112D2571
:100ED4000A128A118312031345088400831300083D
:100EE4000319ED2F83120313C301C401C001C1010F
:100EF400003041020830031940020318DA2F450874
:100F040084008313001C882F0130892F0030FB00DC
:100F14007B08BF003F1C922F831203130614952FE6
:100F2400831203130610003087190130C2004203F4
:100F3400031D9E2F3D08A12F831203133E080A129E
:100F44008A112D250A128A11031083120313430DEB
:100F5400C300440DC4004208FB00FC017B08C30726
:100F64000318C40A7C08C407E830F2000330F30015
:100F74000A128A111D250A128A11831203134508C5
:100F8400840083130008FB0003107B0CFC0045085D
:100F940084007C0880000130C0070318C10A0030B7
:100FA400C10700304102083003194002031C812F9D
:100FB4000130FB007B08C5073B080A128A112D2566
:100FC4000A128A118312031343080A128A11002594
:100FD4000A128A116C2F3C080A128A112D250A1252
:100FE4008A11442FDA018313453084005A300A12DF
:0C0FF4008A11F82483010A128A11F42EDD
:04400E00F4E3FFFFD9
:00000001FF
