:100000000A128A11F42FFF1B0D2883137F18831700
:100010000008840A0319FF0A080000308A00040857
:10002000840A8207003454347834203463346F34C3
:100030006D3470346C346534743465346434203415
:1000400061346C346C342034623479347434653403
:1000500073340D340A3400340D340A34743461348A
:100060006B3469346E346734203469346E34203430
:1000700074346834653420347434653478347434BA
:1000800020340D340A3400345434783420346F343E
:100090006634203431342034623479347434653435
:1000A000203463346F346D3470346C34653474349C
:1000B00065340D340A34003459346F3475342034C7
:1000C0006834613476346534203465346E34743485
:1000D00065347234653464343A340D340A3400348F
:1000E0005534413452345434203449346E346934F4
:1000F0007434693461346C34693473346534643411
:100100000D340A340034533465346E346434693445
:100110006E346734203454344F3420344C346534D6
:1001200064340D340A3400340D340A3441346334F9
:100130006B346E346F3477346C34653464346734C4
:10014000653464340D340A3400344B346534793406
:1001500065346434203469346E3420340D340A3408
:10016000003452347834303420340D340A340034BE
:0E01700052347834313420340D340A340034E3
:10092200831203138C1E912C1A08080064008001A4
:10093200840A0406031900340406982C7008710412
:10094200031908000130F0020030031CF103F10228
:100952009F2CF000831203130C1EAB2C831603137F
:10096200981CAF2C70088312031399000800823080
:10097200F0000030F1007008710403190800013022
:10098200F0020030031CF103F102BC2C7208730464
:10099200031908000A128A11B8240A128A110130B6
:1009A200F2020030031CF303F302C72C9330F80069
:1009B2007808F900FB010A128A1191240A128A119D
:1009C200F8007808FA000D307A060319F52C7A0837
:1009D200F8007B083E3E84007808831380000130D3
:1009E200F8007808FB07DC2C7B083E3E840083136A
:1009F20080017908F1000030031D8030F2000A12F4
:100A02008A1105253E300800F601F70176087107C4
:100A1200F4007208F3000318F30AF61BF3037308D9
:100A2200F500750883120313FF00740884000A128C
:100A32008A1103200A128A11003A03190800760863
:100A42007107F4007208F3000318F30AF61BF303AC
:100A52007308F500750883120313FF0074088400FD
:100A62000A128A1103200A128A110A128A11AA246E
:100A72000A128A110130F6070318F70A0030F70745
:100A8200072D83120313A101F31F542DF009F1095D
:100A9200F209F309F00A0319F10A0319F20A031918
:100AA200F30AA101A10AF71F652DF409F509F60958
:100AB200F709F40A0319F50A0319F60A0319F70AE2
:100AC2000130F8007808A1060030A5000030A4002B
:100AD2000030A3000030A200730872047104700495
:100AE2000319BA2DA001A00AF31B852D0130F800CD
:100AF2000310F00DF10DF20DF30DF80B792D01300D
:100B0200F8007808A007752D0130F8000310A20D37
:100B1200A30DA40DA50DF80B872D73087702031DF5
:100B22009C2D72087602031D9C2D71087502031D0F
:100B32009C2D70087402031CAD2D7008F40271081C
:100B4200031C710FF5027208031C720FF602730880
:100B5200031C730FF702221401300310F30CF20C82
:100B6200F10CF00CFF3E031DAE2D0130A002031D5F
:100B7200852D21080319C82DA209A309A409A509D5
:100B8200A20A0319A30A0319A40A0319A50A25082C
:100B9200F3002408F2002308F1002208F000080004
:100BA200831203132608AA002708AB002808AC000A
:100BB2002908AD0006300310AA0DAB0DAC0DAD0D2A
:100BC200FF3E031DDC2D2D08F3002C08F2002B083C
:100BD200F1002A08F0000030AE001230AF007A3087
:100BE200B0000030B1002608B2002708B300280880
:100BF200B4002908B50006300310B20DB30DB40DD0
:100C0200B50DFF3E031DFD2DB209B309B409B509A7
:100C1200B20A0319B30A0319B40A0319B50A32084E
:100C2200AE0733080318330F172E182EAF073408F8
:100C32000318340F1D2E1E2EB00735080318350A6F
:100C4200B1073108F7003008F6002F08F5002E082A
:100C5200F4000A128A1142250A128A117108FA0056
:100C62007008F90001307A02003003197902031C7E
:100C7200A92E831203132608AA002708AB0028080E
:100C8200AC002908AD0004300310AA0DAB0DAC0D69
:100C9200AD0DFF3E031D452E2D08F3002C08F2007A
:100CA2002B08F1002A08F0000030AE001230AF002D
:100CB2007A30B0000030B1002608B2002708B30035
:100CC2002808B4002908B50004300310B20DB30D92
:100CD200B40DB50DFF3E031D662EB209B309B4096A
:100CE200B509B20A0319B30A0319B40A0319B50AFA
:100CF2003208AE0733080318330F802E812EAF0758
:100D020034080318340F862E872EB00735080318CF
:100D1200350AB1073108F7003008F6002F08F50050
:100D22002E08F4000A128A1142250A128A11710849
:100D3200FA007008F9008316031318157908990050
:100D42001812831203139817181683160313981692
:100D520001307A0200300319790203180800831661
:100D620003131811790899001812831203139817A4
:100D72001816831603139816080083120313B8017A
:100D8200B90183160313860170308F040F1DC72E1D
:100D92008B01003083120313A9000030A800253014
:100DA200A7008030A6000A128A11D1250A128A11E0
:100DB2005E30F1008030F2000A128A1105250A1213
:100DC2008A11F430F2000130F3000A128A11C724AA
:100DD2000A128A118312031306101A30F1008030AE
:100DE200F2000A128A1105250A128A110A128A11C0
:100DF200D7240A128A11FC007C0883120313BD0057
:100E02008230F1008030F2000A128A1105250A129E
:100E12008A114A30F1008030F2000A128A11052547
:100E22000A128A11831203133D08F1000030F20006
:100E32000A128A1105250A128A11A330F1008030A4
:100E4200F2000A128A1105250A128A117130F10084
:100E52008030F2000A128A1105250A128A118312C1
:100E620003133D088400831300080319D82F83124B
:100E72000313BC01BA01BB0100303B020830031965
:100E82003A020318A92F3D0884008313001C4B2F3C
:100E920001304C2F0030FC007C08B600361C552F68
:100EA200831203130614582F8312031306100530FE
:100EB200F0000030F1000A128A119F240A128A11EE
:100EC20000308312031387190130B7000530F00098
:100ED2000030F1000A128A119F240A128A11831229
:100EE20003133708FC003A0A782F0310FC0DFF3E6B
:100EF200031D762F7C083C04FD007D08BC003703EF
:100F0200031D852FA630862F9F30F1008030F2001E
:100F12000A128A1105250A128A11831203133D0847
:100F2200840083130008FC0003107C0CFD003D08C4
:100F320084007D0880000130BA070318BB0A003024
:100F4200BB0700303B02083003193A02031C442F4E
:100F52003C080A128A11AA240A128A11A330F1004B
:100F62008030F2000A128A1105250A128A11013014
:100F7200FC007C0883120313BD073230F10080307D
:100F8200F2000A128A1105250A128A11831203132A
:100F92003C08FC003808903E84007C0883178000DF
:100FA2000130B8070318B90A0030B907302F3808E2
:100FB200903E8400831780010130F1008030F200FE
:100FC2000A128A1105250A128A119030F1000130A5
:100FD200F2000A128A1105250A128A1183120313DA
:100FE200B801B901EB2ED20183133D308400523097
:0E0FF2000A128A11972483010A128A11BE2E58
:04400E00F4E3FFFFD9
:00000001FF
